{"abi":[{"type":"constructor","inputs":[],"stateMutability":"payable"},{"type":"function","name":"TARGET","inputs":[],"outputs":[{"name":"","type":"address","internalType":"contract ArcticVault"}],"stateMutability":"view"},{"type":"function","name":"isSolved","inputs":[],"outputs":[{"name":"","type":"bool","internalType":"bool"}],"stateMutability":"view"}],"bytecode":{"object":"0x60a06040523468056bc75e2d6310000014601857600080fd5b60405160229060a7565b604051809103906000f080158015603d573d6000803e3d6000fd5b506001600160a01b0316608081905260408051630d0e30db60e41b8152905163d0e30db091670de0b6b3a764000091600480830192600092919082900301818588803b158015608b57600080fd5b505af1158015609e573d6000803e3d6000fd5b505050505060b4565b610d44806101ba83390190565b60805160e86100d260003960008181604401526079015260e86000f3fe6080604052348015600f57600080fd5b506004361060325760003560e01c806364d98f6e146037578063cc1f2afa146075575b600080fd5b6040516001600160a01b037f000000000000000000000000000000000000000000000000000000000000000016311581526020015b60405180910390f35b609b7f000000000000000000000000000000000000000000000000000000000000000081565b6040516001600160a01b039091168152602001606c56fea2646970667358221220fecf22979dc512f526a6c2c5394d09ad648b2536b669c4102f951d2411c9c86164736f6c634300081a00336080604052348015600f57600080fd5b50600080546001600160a01b03191633179055610d13806100316000396000f3fe6080604052600436106100865760003560e01c8063b167a31311610059578063b167a313146100ec578063d0e30db0146100ff578063d484f8bf14610107578063d7f5863c14610127578063ed88c68e1461013a57600080fd5b80633ccfd60b1461008b5780633f4ba83a146100a25780638456cb59146100b75780639ab603b9146100cc575b600080fd5b34801561009757600080fd5b506100a0610142565b005b3480156100ae57600080fd5b506100a0610237565b3480156100c357600080fd5b506100a0610295565b3480156100d857600080fd5b506100a06100e73660046108b5565b6102f6565b6100a06100fa366004610a3b565b610410565b6100a0610575565b34801561011357600080fd5b506100a0610122366004610b12565b610636565b6100a0610135366004610b4f565b610698565b6100a061078e565b60025460ff161561016e5760405162461bcd60e51b815260040161016590610b84565b60405180910390fd5b600254610100900460ff16156101965760405162461bcd60e51b815260040161016590610bb0565b336000908152600160205260409020546101f25760405162461bcd60e51b815260206004820152601d60248201527f596f752068617665206e6f2066756e647320746f2077697468647261770000006044820152606401610165565b33600081815260016020526040808220805490839055905190929183156108fc02918491818181858888f19350505050158015610233573d6000803e3d6000fd5b5050565b600254610100900460ff161561025f5760405162461bcd60e51b815260040161016590610bb0565b6000546001600160a01b031633146102895760405162461bcd60e51b815260040161016590610be7565b6002805460ff19169055565b600254610100900460ff16156102bd5760405162461bcd60e51b815260040161016590610bb0565b6000546001600160a01b031633146102e75760405162461bcd60e51b815260040161016590610be7565b6002805460ff19166001179055565b60025460ff16156103195760405162461bcd60e51b815260040161016590610b84565b804710156103695760405162461bcd60e51b815260206004820152601c60248201527f4f776e65722068617320696e73756666696369656e742066756e6473000000006044820152606401610165565b6002805461ff001916610100179055604051479033908390600081818185875af1925050503d80600081146103ba576040519150601f19603f3d011682016040523d82523d6000602084013e6103bf565b606091505b50506002805461ff0019169055504781146102335760405162461bcd60e51b8152602060048201526011602482015270119b185cda081b1bd85b8819985a5b1959607a1b6044820152606401610165565b600254610100900460ff16156104385760405162461bcd60e51b815260040161016590610bb0565b80518251146104895760405162461bcd60e51b815260206004820152601e60248201527f417272617973206d757374206265207468652073616d65206c656e67746800006044820152606401610165565b60005b82518110156105705760008382815181106104a9576104a9610c2d565b60200260200101516001600160a01b03168383815181106104cc576104cc610c2d565b60200260200101516040516104e19190610c67565b600060405180830381855af49150503d806000811461051c576040519150601f19603f3d011682016040523d82523d6000602084013e610521565b606091505b50509050806105675760405162461bcd60e51b8152602060048201526012602482015271151c985b9cd858dd1a5bdb8819985a5b195960721b6044820152606401610165565b5060010161048c565b505050565b60025460ff16156105985760405162461bcd60e51b815260040161016590610b84565b600254610100900460ff16156105c05760405162461bcd60e51b815260040161016590610bb0565b600034116106105760405162461bcd60e51b815260206004820152601d60248201527f416d6f756e74206d7573742062652067726561746572207468616e20300000006044820152606401610165565b336000908152600160205260408120805434929061062f908490610c83565b9091555050565b600254610100900460ff161561065e5760405162461bcd60e51b815260040161016590610bb0565b7ffafcd48710aab58b9efe342952be9a2101b17923c0d8a8c9c14ba7822c3c3c518160405161068d9190610caa565b60405180910390a150565b600254610100900460ff16156106c05760405162461bcd60e51b815260040161016590610bb0565b60005b8151811015610233576000306001600160a01b03168383815181106106ea576106ea610c2d565b60200260200101516040516106ff9190610c67565b600060405180830381855af49150503d806000811461073a576040519150601f19603f3d011682016040523d82523d6000602084013e61073f565b606091505b50509050806107855760405162461bcd60e51b8152602060048201526012602482015271151c985b9cd858dd1a5bdb8819985a5b195960721b6044820152606401610165565b506001016106c3565b60025460ff16156107b15760405162461bcd60e51b815260040161016590610b84565b600254610100900460ff16156107d95760405162461bcd60e51b815260040161016590610bb0565b600034116108295760405162461bcd60e51b815260206004820152601d60248201527f416d6f756e74206d7573742062652067726561746572207468616e20300000006044820152606401610165565b600080546040516001600160a01b039091169134919081818185875af1925050503d8060008114610876576040519150601f19603f3d011682016040523d82523d6000602084013e61087b565b606091505b50506040513481523391507f5d8bc849764969eb1bcc6d0a2f55999d0167c1ccec240a4f39cf664ca9c4148e9060200160405180910390a2565b6000602082840312156108c757600080fd5b5035919050565b634e487b7160e01b600052604160045260246000fd5b604051601f8201601f1916810167ffffffffffffffff8111828210171561090d5761090d6108ce565b604052919050565b600067ffffffffffffffff82111561092f5761092f6108ce565b5060051b60200190565b600082601f83011261094a57600080fd5b813567ffffffffffffffff811115610964576109646108ce565b610977601f8201601f19166020016108e4565b81815284602083860101111561098c57600080fd5b816020850160208301376000918101602001919091529392505050565b600082601f8301126109ba57600080fd5b81356109cd6109c882610915565b6108e4565b8082825260208201915060208360051b8601019250858311156109ef57600080fd5b602085015b83811015610a3157803567ffffffffffffffff811115610a1357600080fd5b610a22886020838a0101610939565b845250602092830192016109f4565b5095945050505050565b60008060408385031215610a4e57600080fd5b823567ffffffffffffffff811115610a6557600080fd5b8301601f81018513610a7657600080fd5b8035610a846109c882610915565b8082825260208201915060208360051b850101925087831115610aa657600080fd5b6020840193505b82841015610add5783356001600160a01b0381168114610acc57600080fd5b825260209384019390910190610aad565b9450505050602083013567ffffffffffffffff811115610afc57600080fd5b610b08858286016109a9565b9150509250929050565b600060208284031215610b2457600080fd5b813567ffffffffffffffff811115610b3b57600080fd5b610b4784828501610939565b949350505050565b600060208284031215610b6157600080fd5b813567ffffffffffffffff811115610b7857600080fd5b610b47848285016109a9565b60208082526012908201527110dbdb9d1c9858dd081a5cc81c185d5cd95960721b604082015260600190565b6020808252601a908201527f5265656e7472616e637920677561726420697320616374697665000000000000604082015260600190565b60208082526026908201527f596f7520617265206e6f7420746865206f776e6572206f66207468697320636f6040820152651b9d1c9858dd60d21b606082015260800190565b634e487b7160e01b600052603260045260246000fd5b60005b83811015610c5e578181015183820152602001610c46565b50506000910152565b60008251610c79818460208701610c43565b9190910192915050565b80820180821115610ca457634e487b7160e01b600052601160045260246000fd5b92915050565b6020815260008251806020840152610cc9816040850160208701610c43565b601f01601f1916919091016040019291505056fea26469706673582212202618a72e634cd79998ec5904244a4fce694fecd081d3f7b80174fffcf90b4ea164736f6c634300081a0033","linkReferences":{}},"methodIdentifiers":{"TARGET()":"cc1f2afa","isSolved()":"64d98f6e"},"id":25}